:020000040000FA
:060000000A128A11FC2F18
:100F8000F001F1010130F0070318F10A0030F10718
:100F90001330710288300319700203180800C22F41
:100FA000831603138701831203138701F301F401EE
:100FB0007408803AFF0080307F02031DE12F083063
:100FC00073020318D62F0130F200730AE92F0310C1
:100FD000F20DFF3E031DE72F7208831203138700F3
:100FE0000A128A11C0270A128A110130F307031866
:100FF000F40A0030F407D82F83010A128A11D02F87
:02400E00323F3F
:00000001FF
