:020000040000FA
:060000000A128A11FC2F18
:100ECA000730831603139F00850188010800F2008A
:100EDA0083120313851005117208880085110A12FE
:100EEA008A119B278312031385150800F2008312C7
:100EFA000313851405117208880085110A128A11D4
:100F0A009B2783120313851508000E300A128A11D3
:100F1A006C270A128A1101300A128A116C270A12E6
:100F2A008A1138300A128A116C270800F001F1017F
:100F3A000130F0070318F10A0030F1077108803A0E
:100F4A00FF0093307F02031DAC2F88307002031814
:100F5A0008009D2F0A128A1165270A128A110A129D
:100F6A008A118A270A128A1168300A128A117B2783
:100F7A000A128A1165300A128A117B270A128A110B
:100F8A006C300A128A117B270A128A116C300A12F3
:100F9A008A117B270A128A116F300A128A117B275B
:100FAA000A128A11C0300A128A116C270A128A118F
:100FBA0077300A128A117B270A128A116F300A12B5
:100FCA008A117B270A128A1172300A128A117B2728
:100FDA000A128A116C300A128A117B270A128A11A4
:100FEA0064300A128A117B270A128A11FB2F8301A5
:060FFA000A128A11AF2F5C
:02400E00323F3F
:00000001FF
