:020000040000FA
:100000000A128A11C52FAA340034D2340034D734EE
:100010000034FA3400340134203084003030FA00E7
:100020000408FB001030FC007A08840083130008E9
:10003000FD00FA0A7B0884007D088000FB0AFC0BA7
:1000400014280A168A1126250A128A1182300A16E5
:100050008A155E270A128A1183120313C401C5018F
:10006000C801C601C7010A168A11D6250A128A11CB
:10007000730883120313C3007208C2007328C801F7
:1000800089294808031D4E284408450403194E28B1
:10009000FF30C4070318C50AFF30C507C801C80AE6
:1000A00089294808031D8929C701C70A89294808E1
:1000B000031D8929C601C60A89294808031D4E283F
:1000C00003304406450403194E280130C4070318C1
:1000D000C50A00304D28BE01BF0108000130BE0036
:1000E0000030BF0008004308003A03197828892926
:1000F0004208003A03193F28023A03194128073AF7
:1001000003195128023A031957280D3A03195D289B
:10011000073A03196B281D3A03196E288929823082
:100120000A168A155E270A128A11831203134603E0
:10013000031DD02809303506031DA3280130FA001D
:100140007A08B407AC2803303506031DAE28023008
:100150003406031DAE28B401B501B2280130FA00FF
:100160007A08B507203084003030FA000408FB001C
:100170001030FC007A08840083130008FD00FA0A9E
:100180007B0884007D088000FB0AFC0BBA280A1655
:100190008A1126250A128A1183120313C6013328F5
:1001A0004703031D33283408031DE2283508031DC7
:1001B000E2280230FA007A08B4000330FA007A0824
:1001C000B500F6283508031DF4280930FA007A082E
:1001D000B5003408031DF1280530FA007A08B40090
:1001E000F6280130B402F6280130B5022030840030
:1001F0003030FA000408FB001030FC007A0884005C
:1002000083130008FD00FA0A7B0884007D08800043
:10021000FB0AFC0BFE280A168A1126250A128A11EF
:1002200083120313322883300A168A155E270A12B6
:100230008A11831203134603031D33290930330641
:10024000031D2E29B30105303206031D2929B201F1
:10025000B2280130FA007A08B207B2280130FA0059
:100260007A08B307B2284703031D33283208031D59
:1002700041293308031D41290530FA007A08B200EC
:1002800046293308031D4B290130B2020930FA0018
:100290007A08B300F6280130B302F62885300A1632
:1002A0008A155E270A128A11831203134603031D5F
:1002B0006E2909303106031D6929B1010530300668
:1002C000031D6429B001B2280130FA007A08B00792
:1002D000B2280130FA007A08B107B2284703031D9B
:1002E00033283008031D7C293108031D7C29053083
:1002F000FA007A08B00081293108031D86290130EF
:10030000B0020930FA007A08B100F6280130B102D3
:10031000F6284508003A03198E2933284408003A84
:1003200003198F28013A03191329033A03194E2997
:10033000332833280A168A1548270A128A110A1602
:100340008A1575260A128A110A168A11A4220A121F
:100350008A110A168A1143240A128A11831603137A
:10036000C600460883120313EF006F080319F32930
:1003700073308400E53083160313C6000408C700F9
:100380000830C8004608840083130008C900C60A64
:100390004708840049088000C70AC80BC229FB012E
:1003A000FB0A0A168A11C4230A128A1173308400C8
:1003B000D33083160313C6000408C7000830C800F2
:1003C0004608840083170008C900C60A470884004D
:1003D00049088000C70AC80BE029FB010A168A11E8
:1003E000C4230A128A1101300A168A1150260A12F1
:1003F0008A11E5308400723083160313C6000408A6
:10040000C7000830C800460884000008C900C60AB2
:1004100047088400831349088000C70AC80B032AD1
:1004200000300A168A1150260A128A11D33084002D
:10043000723083160313C6000408C7000830C800D2
:10044000460884000008C900C60A470884008317CC
:1004500049088000C70AC80B202A0A128A150E20F4
:100460000A128A11CE3084008312031326088313E4
:100470008000840A27088000840A28088000840AF3
:1004800029088000840A2A0880000A168A1102249A
:100490000A128A1190308400831203135530831698
:1004A0000313C6000408C7001030C80046088400C3
:1004B00083130008C900C60A470884008317490847
:1004C0008000C70AC80B562A0A168A1548270A123E
:1004D0008A110A128A155B220A128A110A168A11D7
:1004E0003A220A128A110A128A159A200A128A11CD
:1004F0000A168A11E0200A128A1171088312031366
:10050000EE007008ED00CB2B303084009030831665
:100510000313C6000408C7001030C8004608840052
:1005200083170008C900C60A4708840083134908D6
:100530008000C70AC80B8E2A0A128A110C200A12E0
:100540008A11903084008312031330308316031312
:10055000CA000408CB001030CC004A088400831382
:100560000008CD00CA0A4B08840083174D0880009C
:10057000CB0ACC0BAD2A831603171E031F04031DE1
:10058000DE2A20308400903083160313C60004084E
:10059000C7001030C8004608840083170008C9004F
:1005A000C60A47088400831349088000C70AC80B9D
:1005B000CB2A0A168A11D4260A128A11831603132B
:1005C000ED01ED0A2D2A303084009030831603139C
:1005D000C6000408C7001030C8004608840083170E
:1005E0000008C900C60A4708840083134908800030
:1005F000C70AC80BED2A0A128A11E1230A128A11CE
:100600009030840083120313303083160313CA0022
:100610000408CB001030CC004A0884008313000883
:10062000CD00CA0A4B08840083174D088000CB0A0E
:10063000CC0B0C2BBB2A39308400E5308316031316
:10064000C6000408C7000830C800460884008313A9
:100650000008C900C60A4708840049088000C70A84
:10066000C80B252B013083120313C1000030C200D8
:100670000A128A1561240A128A11E5308400831255
:100680000313393083160313CA000408CB00083063
:10069000CC004A08840083130008CD00CA0A4B0826
:1006A00084004D088000CB0ACC0B492B73308400AA
:1006B000E530C6000408C7000830C80046088400BA
:1006C00083130008C900C60A47088400490880004F
:1006D000C70AC80B5E2BFB01FB0A0A168A11C4234A
:1006E0000A128A11DE2A39308400D33083160313AC
:1006F000C6000408C7000830C800460884008317F5
:100700000008C900C60A470884008313490880000E
:10071000C70AC80B7D2B003083120313C100C2002F
:100720000A128A1561240A128A11D33084008312B6
:100730000313393083160313CA000408CB000830B2
:10074000CC004A08840083130008CD00CA0A4B0875
:10075000840083174D088000CB0ACC0BA12B73308B
:100760008400D330C6000408C7000830C80046081B
:10077000840083170008C900C60A47088400490896
:100780008000C70AC80BB72BFB010A168A11C423C5
:100790000A128A11DE2A6E08003A0319D02B2D2A7C
:1007A0006D08003A0319842A013A0319E32A033A2F
:1007B00003191B2B013A0319732B2D2A0A128A11D4
:1007C000002820308400303083120313C000040856
:1007D000C1001030C2004008840083130008C30029
:1007E000C00A4108840043088000C10AC20BEB2BF9
:1007F0000A168A11D5240A128A1184300A168A151B
:100800005E270A128A1183120313CA01CB01CE019B
:10081000CC0183120313CD010A168A11D6250A12C0
:100820008A11730883120313C5007208C4004C2C8C
:10083000CE01682C4E08031D272C4A084B040319CF
:10084000272CFF30CA070318CB0AFF30CB07CE0195
:10085000CE0A682C4E08031D682CCD01CD0A682CE9
:100860004E08031D682CCC01CC0A682C4E08031DD1
:10087000272C03304A064B040319272C0130CA07E2
:100880000318CB0A0030262CBE01BF01080001303E
:10089000BE000030BF0008004508003A0319512C83
:1008A000682C4408003A0319182C023A03191A2C30
:1008B000073A03192A2C023A0319302C0D3A03196E
:1008C000362C073A0319442C1D3A0319472C682C7F
:1008D0003808C000C1014008F0004108F1000A30AA
:1008E000F2000030F3000A168A159A270A128A11BC
:1008F0008312031339087007C20000300318013057
:100900007107C3004208FF3EC60043080318013EBA
:10091000FF3EC7004608C0004007BB3E8400831767
:100920000008C800840A0008C900B42F82300A16E3
:100930008A155E270A128A11831203133608C00033
:10094000C1014008F0004108F1000A30F200003017
:10095000F3000A168A159A270A128A1183120313C2
:1009600037087007D3000030031801307107D40036
:100970004C03031D272D5408803AC0004908803AD3
:100980004002031DC52C48085302031CCE2C013025
:1009900083120313D3000030D400D62C013083120D
:1009A0000313D3070318D40A0030D4070A30F90020
:1009B0000030FA000A30F0000030F1005408F30073
:1009C0005308F2000A168A117D250A128A1171084D
:1009D000FC007008FB000A168A1188240A128A118A
:1009E000790883120313C0004008B6000A30F900EA
:1009F0000030FA005408FC005308FB000A168A1164
:100A000088240A128A11790883120313C00040084F
:100A1000B700203084003030C0000408C10010301E
:100A2000C2004008840083130008C300C00A4108C4
:100A3000840043088000C10AC20B112D0A168A11D6
:100A4000D5240A128A1183120313CC010C2C4D03F6
:100A5000031D0C2C53085404031D332D4908D400E6
:100A60004808D300392DFF30D3070318D40AFF30CC
:100A7000D4070A30F9000030FA000A30F0000030E4
:100A8000F1005408F3005308F2000A168A117D257C
:100A90000A128A117108FC007008FB000A168A11FC
:100AA00088240A128A11790883120313C0004008AF
:100AB000B6000A30F9000030FA005408FC00530870
:100AC000FB000A168A1188240A128A1179088312F7
:100AD0000313C0004008B700203084003030831278
:100AE0000313C0000408C1001030C2004008840095
:100AF00083130008C300C00A410884004308800033
:100B0000C10AC20B762D0A168A11D5240A128A113F
:100B1000092C83300A168A155E270A128A1183125D
:100B200003133808C000C1014008F0004108F1007B
:100B30000A30F2000030F3000A168A159A270A12CA
:100B40008A118312031339087007D100003003188B
:100B500001307107D2003608C000C1014008F00022
:100B60004108F1000A30F2000030F3000A168A153D
:100B70009A270A128A118312031337087007D300C9
:100B80000030031801307107D4004C03031D812E7F
:100B90000C3051065204031DD22D0130D10000301B
:100BA000D200D82D0130D1070318D20A0030D20765
:100BB0000A30F9000030FA000A30F0000030F1008D
:100BC0005208F3005108F2000A168A117D250A1214
:100BD0008A117108FC007008FB000A168A1188242B
:100BE0000A128A11790883120313C0004008B80062
:100BF0000A30F9000030FA005208FC005108FB00EE
:100C00000A168A1188240A128A117908831203139A
:100C1000C0004008B9005108C0004007B93E840038
:100C200083170008C100840A0008C2004208803A05
:100C3000C3005408803A4302031D202E530841028A
:100C40000318622E831203135108C0004007B93EF7
:100C5000840083170008D300840A0008D4000A30F7
:100C6000F9000030FA000A30F0000030F1005408BA
:100C7000F3005308F2000A168A117D250A128A1120
:100C80007108FC007008FB000A168A1188240A12F9
:100C90008A11790883120313C0004008B6000A3095
:100CA000F9000030FA005408FC005308FB000A1653
:100CB0008A1188240A128A11790883120313C0004A
:100CC0004008B70020308400303083120313C00086
:100CD0000408C1001030C2004008840083130008DB
:100CE000C300C00A4108840043088000C10AC20B47
:100CF0006C2E0A168A11D5240A128A118312031344
:100D0000CC014D03031D0C2C51035204031D8D2EE9
:100D10000C30D1000030D200932EFF30D1070318E1
:100D2000D20AFF30D2070A30F9000030FA000A3048
:100D3000F0000030F1005208F3005108F2000A16EA
:100D40008A117D250A128A117108FC007008FB00C7
:100D50000A168A1188240A128A1179088312031349
:100D6000C0004008B8000A30F9000030FA0052080C
:100D7000FC005108FB000A168A1188240A128A1105
:100D8000790883120313C0004008B9005108C0005D
:100D90004007B93E840083170008C100840A000898
:100DA000C2004208803AC3005408803A4302031D3F
:100DB000DB2E5308410203186C2D831203135108D4
:100DC000C0004007B93E840083170008D300840A9E
:100DD0000008D400392D85300A168A155E270A12BC
:100DE0008A11831203133C08C000C1014008F000BF
:100DF0004108F1000A30F2000030F3000A168A15AB
:100E00009A270A128A11831203133D087007CF0034
:100E10000030031801307107D0004C03031D6E2F02
:100E200063304F065004031D182FCF01D0011E2F31
:100E30000130CF070318D00A0030D0070A30F9007C
:100E40000030FA000A30F0000030F1005008F300E2
:100E50004F08F2000A168A117D250A128A117108BC
:100E6000FC007008FB000A168A1188240A128A11F5
:100E7000790883120313C0004008BC000A30F9004F
:100E80000030FA005008FC004F08FB000A168A11D7
:100E900088240A128A11790883120313C0004008BB
:100EA000BD00203084003030C0000408C100103084
:100EB000C2004008840083130008C300C00A410830
:100EC000840043088000C10AC20B592F0A168A11F8
:100ED000D5240A128A1183120313CC014D03031D7A
:100EE0000C2C4F085004031D7A2F6330CF000030C4
:100EF000D000802FFF30CF070318D00AFF30D00773
:100F00000A30F9000030FA000A30F0000030F10039
:100F10005008F3004F08F2000A168A117D250A12C4
:100F20008A117108FC007008FB000A168A118824D7
:100F30000A128A11790883120313C0004008BC000A
:100F40000A30F9000030FA005008FC004F08FB009E
:100F50000A168A1188240A128A1179088312031347
:100F6000C0004008BD006C2D4B08003A0319B92F92
:100F70000C2C4A08003A0319962C013A0319892DC2
:100F8000033A0319EB2E0C2C0C2C8317E230FD00D6
:100F90001130FE005130FF00BB3084000A168A1564
:100FA000B0260A128A118313EE30FD000030FE00D5
:100FB0000330FF00E53084000A168A15B0260A12B5
:100FC0008A11831790308400BB300A168A15932645
:100FD0000A128A111030840030300A168A159326BE
:100FE0000A128A118313CE308400E5300A168A155E
:100FF000932683160313EE0183010A128A119A299C
:10100000F2007008F1007108F3000130F302031DD3
:1010100005280130F2020319080001280A168A1572
:1010200084260A128A150A128A1579210A128A154B
:1010300083160313600883120313AB00AC012B0863
:10104000F0002C08F1006430F2000030F3000A16C2
:101050008A159A270A128A15700883120313AD00A5
:101060007108AE00831603135F0883120313AF00E9
:10107000B0012F08F0003008F1000A30F200003013
:10108000F3000A168A159A270A128A157008831225
:1010900003132D07B10071080318710A2E07B2005F
:1010A000831603135E08831203133107B300003065
:1010B000031801303207B40035308400831603135F
:1010C000530883138000840A54088000840A55085A
:1010D0008000840A56088000840A5708800060084F
:1010E00083120313AB002B08B500831603135F08AC
:1010F00083120313AB002B08B600831603135E089C
:1011000083120313AB002B08B7003408B90033086F
:10111000B8002630840035088000840A3608800034
:10112000840A37088000840A38088000840A390855
:101130008000080020308400903083160313B40030
:101140000408B5001030B600340884008317000886
:10115000B700B40A35088400831337088000B50A45
:10116000B60BA4280A168A11BB200A128A15831608
:101170000313B8003808C10041080319CF286608D6
:10118000BA006508B9006808BC006708BB006A08B7
:10119000BE006908BD006C08C0006B08FE288316FD
:1011A0000317540883160313BA0083160317530852
:1011B00083160313B9008316031756088316031307
:1011C000BC0083160317550883160313BB00831650
:1011D0000317580883160313BE0083160317570816
:1011E00083160313BD00831603175A0883160313CF
:1011F000C00083160317590883160313BF000A168D
:101200008A1570260A128A15831603135208803A2B
:10121000B4003A08803A3402031D102939085102FB
:1012200003182729103083160313B4003408F30081
:101230002B300A168A15BB270A128A150A168A1538
:101240000A270A128A150A168A114C2308008316E7
:1012500003135208803AB4003C08803A3402031D5C
:1012600033293B0851020318452910308316031314
:10127000B4003408F3004D300A168A15BB270A1251
:101280008A150A168A150A270800831603134008D0
:10129000803AB4005208803A3402031D51295108A3
:1012A0003F0203185B29103083160313B40034087F
:1012B000F3003C301929831603133E08803AB4002A
:1012C0005208803A3402031D672951083D02031871
:1012D0007129103083160313B4003408F3001A3058
:1012E0003C29103083160313B4003408F30009308E
:1012F0003C298316031305140A168A116F220A1259
:101300008A15CC300A168A11DB220A128A1544305B
:101310000A168A11DB220A128A150A168A116F220E
:101320000A128A15CC300A168A11DB220A128A1593
:10133000BE300A168A11DB220A128A150A168A1191
:1013400012230A128A1583120313A200220883169D
:101350000313E4000A168A1112230A128A15831253
:101360000313A200220883160313E3000514630885
:1013700083120313A20004300310A20DFF3E031DCD
:10138000BC293F302205A30083160313640883128F
:101390000313A40004300310A40CFF3E031DCB294B
:1013A00024082304A500250883160313E20064081B
:1013B00083120313A20003300310A20DFF3E031D8E
:1013C000DC290310220DA300230883160313E10078
:1013D0000A30F9000030FA00620883120313A200F9
:1013E000A3012208FB002308FC000A168A118824A6
:1013F0000A128A15790883120313A400240883169D
:101400000313DF000A30F0000030F100620883129D
:101410000313A200A3012208F2002308F3000A1616
:101420008A117D250A128A15700883120313A400FD
:10143000240883160313E000DC01DD01E11F282AE4
:101440005C08883EDC005D080318013E133EDD00A9
:10145000611F322A5C08C43EDC005D080318013EAF
:10146000093EDD00E11E3C2A5C08E23EDC005D082E
:101470000318013E043EDD00611E462A5C08713EF1
:10148000DC005D080318013E023EDD00E830F0009C
:101490000330F1005D08F3005C08F2000A168A11BF
:1014A0008823700883120313A200220883160313F3
:1014B000DE00000008000A168A1548270A128A155D
:1014C000831603171108831203171106031D6D2AD3
:1014D000831603136D08031908000A168A157A2665
:1014E0000A128A150330F8007808F30083160317F0
:1014F0001B08DA3E8400831700080A168A15BB27EA
:101500000A128A150530F8007808F30014300A161C
:101510008A15BB270A128A15831603171408303E52
:101520000A168A157C270A128A15831603171508CE
:10153000303E0A168A157C270A128A15F301F30A2F
:1015400088300A168A15BB270A128A1583160317D4
:101550001208303E0A168A157C270A128A1583164D
:1015600003171308303E0A168A157C270A128A15BB
:10157000F301F30A88300A168A15BB270A128A1566
:10158000831603171008303E0A168A157C270A12A4
:101590008A15831603171108303E0A168A157C2710
:1015A0000A128A15831603171708831203171706E2
:1015B000031DDF2A831603136D03031D342B0A1644
:1015C0008A157F260A128A150830F8007808F30079
:1015D00011300A168A15BB270A128A1583160317BB
:1015E0001608303E0A168A157C270A128A158316B9
:1015F00003171708303E0A168A157C270A128A1527
:10160000F301F30AA6300A168A15BB270A128A15B7
:10161000831603171808303E0A168A157C270A120B
:101620008A15831603171908303E0A168A157C2777
:101630000A128A15F301F30AA6300A168A15BB2787
:101640000A128A15831603171C08303E0A168A15DB
:101650007C270A128A15831603171D08303E0A16C6
:101660008A157C270A128A15103084009030F80001
:101670000408F9001030FA00780884008317000885
:10168000FB00F80A790884007B088000F90AFA0B4D
:101690003C2B08008316031728080A168A15DD2735
:1016A0000A128A15F700770883120313BE003E085A
:1016B00084000008F7007708B0003E0A84000008A4
:1016C000F7007708B1008316031729080A168A1550
:1016D000DD270A128A15F700770883120313BF006B
:1016E0003F0884000008F7007708B2003F0A840032
:1016F0000008F7007708B300831603172A080A16B4
:101700008A15DD270A128A15F7007708831203135A
:10171000C000400884000008F7007708B400400AC1
:1017200084000008F7007708B500831603172B081C
:101730000A168A15DD270A128A15F7007708831220
:101740000313C100410884000008F7007708B600C1
:10175000410A84000008F7007708B70083160317D2
:101760002C080A168A15DD270A128A15F700770851
:1017700083120313C200420884000008F7007708B0
:10178000B800420A84000008F7007708B900831601
:1017900003172D080A168A15DD270A128A15F70085
:1017A000770883120313C300430884000008F7007E
:1017B0007708BA00430A84000008F7007708BB00E6
:1017C000831603172E080A168A15DD270A128A15B2
:1017D000F700770883120313C4004408840000084C
:1017E000F7007708BC00440A84000008F700770877
:1017F000BD00453084002030F7000408F8001030A8
:10180000F9007708840083170008FA00F70A7808BF
:10181000840083137A088000F80AF90B012C300841
:10182000F7007708C5003108F7007708C6003208CE
:10183000F7007708C7003308F7007708C8003408B6
:10184000F7007708C9003508F7007708CA0036089E
:10185000F7007708CB003708F7007708CC00380886
:10186000F7007708CD003908F7007708CE003A086E
:10187000F7007708CF003B08F7007708D0003C0856
:10188000F7007708D1003D08F7007708D200013053
:10189000D3000030D400203084004530F700040825
:1018A000F8001030F9007708840083130008FA006C
:1018B000F70A780884007A088000F80AF90B532C9C
:1018C000080050308400393083120313C300040829
:1018D000C4000830C5004308840083130008C60014
:1018E000C30A4408840046088000C40AC50B6B2C58
:1018F000223084005030C3000408C4000830C50002
:101900004308840083130008C600C30A4408840007
:1019100046088000C40AC50B802C4208AB00410871
:10192000AA000A128A15D9250A128A1591300A16B8
:101930008A155E270A128A1583120313CC01CD0182
:10194000CB01CE01CF01C701C80147084804031DE0
:1019500008000A168A11D6250A128A1573088312FE
:101960000313CA007208C900F22CCB01C52D4B0825
:10197000031DC42C4C084D040319C42CFF30CC07A4
:101980000318CD0AFF30CD07CB01CB0AC52DCF01FF
:10199000CF0AC52DCE01CE0AC52D4B08031DC42C80
:1019A00004304C064D040319C42C0130CC07031835
:1019B000CD0A0030C32C0800393084005030C300F9
:1019C0000408C4000830C5004308840083130008DD
:1019D000C600C30A4408840046088000C40AC50B38
:1019E000E42C08004A08003A0319F72CC52D4908D1
:1019F000003A0319B52C023A0319B72C073A031918
:101A0000C72C023A0319CA2C0D3A0319CD2C073AF8
:101A10000319DB2C1D3A0319DC2CC52D91300A1655
:101A20008A155E270A128A15831203134E03031DBB
:101A3000462D6430500651040319462D0130D0075D
:101A40000318D10A0030D107223084005030C3007F
:101A50000408C4000830C50043088400831300084C
:101A6000C600C30A4408840046088000C40AC50BA7
:101A70002C2D4208AB004108AA000A128A15D9256C
:101A80000A128A1583120313CE01A52C4F03031DDE
:101A9000A52CFF30D0070318D10AFF30D107223020
:101AA00084005030C3000408C4000830C500430857
:101AB000840083130008C600C30A44088400460853
:101AC0008000C40AC50B572D4208AB004108AA008C
:101AD0000A128A15D9250A128A1583120313CF0117
:101AE000A52C96300A168A155E270A128A158312CB
:101AF00003134E03031D832D0130D2070318D30AAD
:101B00000030D307242D4F03031DA52CFF30D2072F
:101B10000318D30AFF30D3074F2D99300A168A15C0
:101B20005E270A128A15831203134E03031D9F2D8D
:101B30000130D4070318D50A0030D507242D4F03F0
:101B4000031DA52CFF30D4070318D50AFF30D50795
:101B50004F2D9E300A168A155E270A128A158312A7
:101B600003134E03031DBB2D0130D6070318D70AFC
:101B70000030D707242D4F03031DA52CFF30D607B7
:101B80000318D70AFF30D7074F2D4D08003A031925
:101B9000CA2DA52C4C08003A03190E2D013A031941
:101BA000712D033A03198D2D013A0319A92DA52C86
:101BB000A52C0A168A1548270A128A150A168A15AC
:101BC00075260A128A1581300A168A155E270A12AE
:101BD0008A15831203132A082B040319F52D0A30E2
:101BE000AC002C08F3007B30FA2D0C30AC002C0834
:101BF000F3006E300A168A15BB270A128A150A16D8
:101C00008A157F260A128A150A30F9000030FA0078
:101C10006430F0000030F100831203132308F30056
:101C20002208F2000A168A117D250A128A15710807
:101C3000FC007008FB000A168A1188240A128A1513
:101C4000790883120313AC002C08AD000A30F900A8
:101C50000030FA000A30F0000030F1002308F300F1
:101C60002208F2000A168A117D250A128A157108C7
:101C7000FC007008FB000A168A1188240A128A15D3
:101C8000790883120313AC002C08AE000A30F90067
:101C90000030FA002308FC002208FB000A168A1113
:101CA00088240A128A15790883120313AC002C08C1
:101CB000AF0020300A168A157C270A128A15831273
:101CC00003132D08303E0A168A157C270A128A153E
:101CD000831203132E08303E0A168A157C270A1237
:101CE0008A152E300A168A157C270A128A15831245
:101CF00003132F08303E0A168A157C270A128A150C
:101D0000063083120313AC002C08F30013300A16BC
:101D10008A15BB270A128A150A30F9000030FA002A
:101D20006430F0000030F100831203132508F30043
:101D30002408F2000A168A117D250A128A157108F4
:101D4000FC007008FB000A168A1188240A128A1502
:101D5000790883120313AC002C08B0000A30F90094
:101D60000030FA000A30F0000030F1002508F300DE
:101D70002408F2000A168A117D250A128A157108B4
:101D8000FC007008FB000A168A1188240A128A15C2
:101D9000790883120313AC002C08B1000A30F90053
:101DA0000030FA002508FC002408FB000A168A11FE
:101DB00088240A128A15790883120313AC002C08B0
:101DC000B2003008303E0A168A157C270A128A159E
:101DD000831203133108303E0A168A157C270A1233
:101DE0008A152E300A168A157C270A128A15831244
:101DF00003133208303E0A168A157C270A128A1508
:101E00000A168A1570260A128A150A30F90000305F
:101E1000FA006430F0000030F10083120313270849
:101E2000F3002608F2000A168A117D250A128A1587
:101E30007108FC007008FB000A168A1188240A1237
:101E40008A15790883120313AC002C08B3000A30FA
:101E5000F9000030FA000A30F0000030F1002708E5
:101E6000F3002608F2000A168A117D250A128A1547
:101E70007108FC007008FB000A168A1188240A12F7
:101E80008A15790883120313AC002C08B4000A30B9
:101E9000F9000030FA002708FC002608FB000A16AB
:101EA0008A1188240A128A15790883120313AC0058
:101EB0002C08B50020300A168A157C270A128A15CC
:101EC000831203133308303E0A168A157C270A1240
:101ED0008A15831203133408303E0A168A157C27AC
:101EE0000A128A152E300A168A157C270A128A15BC
:101EF000831203133508303E0A168A157C270A120E
:101F00008A15063083120313AC002C08F30013303B
:101F10000A168A15BB270A128A150A30F900003002
:101F2000FA006430F0000030F10083120313290836
:101F3000F3002808F2000A168A117D250A128A1574
:101F40007108FC007008FB000A168A1188240A1226
:101F50008A15790883120313AC002C08B6000A30E6
:101F6000F9000030FA000A30F0000030F1002908D2
:101F7000F3002808F2000A168A117D250A128A1534
:101F80007108FC007008FB000A168A1188240A12E6
:101F90008A15790883120313AC002C08B7000A30A5
:101FA000F9000030FA002908FC002808FB000A1696
:101FB0008A1188240A128A15790883120313AC0047
:101FC0002C08B8003608303E0A168A157C270A12FB
:101FD0008A15831203133708303E0A168A157C27A8
:101FE0000A128A152E300A168A157C270A128A15BB
:101FF000831203133808303E0A168A157C2708001E
:1020000010308A000408840A8207003430345934BE
:102010001234063411340634063400344F3470342C
:10202000743469346D3461346C3420342034203499
:1020300020342034203420342034203400344834F8
:1020400069346734683420342D34203441344334C7
:1020500020344F344E3420342034203420340034A3
:1020600054344F344F3420344C344F3457342134AB
:10207000203441344C34413452344D3421342034F2
:10208000003454344F344F342034483449344734C6
:1020900048342134203441344C34413452344D34AA
:1020A000213400344C346F34773420342D342034D0
:1020B000483465346134743469346E3467342034A0
:1020C0004F344E34003441346C34613472346D34E6
:1020D0002034523465347334653474347434693460
:1020E0006E34673400344E34493447344834543401
:1020F00020344C3449344D3449345434533400344E
:1021000044344134593420344C3449344D34493406
:1021100054345334003469346E343A340034573410
:102120004534443400345434553445340034463452
:102130005234493400344D344F344E340034533427
:1021400055344E3400345334413454340034543410
:102150004834553400342F340034C8300A168A15F8
:102160005E270800F030831603138700FF308312C8
:10217000031387000800831203132408031DD028CB
:1021800006302506031DCA2803302202031CCA2874
:1021900001300800073025020318C8280030080065
:1021A0002403031DCE2809302506031DDB28043037
:1021B0002202031CC82809302502031CC828CE2887
:1021C0000F30831603138600831203130618EB28BF
:1021D000F001F10108008618F2280130F00000300B
:1021E000F10008000619F9280230F0000030F10073
:1021F0000800861900290330F0000030F1000800C3
:102200000430F0000030F1000800F20083160317DC
:102210008C1806297208831203178D0070088C0031
:102220003F30F1007108831603178C0583120313E6
:1022300003108B1B03148B13831603170C155530D7
:102240008D00AA308D008C140C1183120313031C13
:1022500008008B170800F400F201F3018312031346
:1022600006120610741806167408F0000310700C9D
:10227000F1007108F40006140130F2070318F30AA4
:102280000030F3077308803AFF0080307F02031D9F
:102290004B2908307202031C2E29831203130610E7
:1022A00008001F3400341D3400341F3400341E3441
:1022B00000341F3400341E3400341F3400341F3403
:1022C00000341E3400341F3400341E3400341F34F4
:1022D0000034AA340034CD340034D2340034F53420
:1022E000003496348E348A34A23492349E349A3434
:1022F000831203138616BF300A168A112B210A1681
:102300008A11F601F7010A168A11D5210A168A11D7
:10231000F5007608A83E8400750883178000013018
:10232000F6070318F70A0030F7077708803AFF002E
:1023300080307F02031D9E2907307602031C83290B
:102340008312031386120800C12983120313071096
:1023500087140715871508008312031307148710C5
:102360000715871508008312031307148714071134
:1023700087150800831203130714871407158711A4
:1023800008007108003A0319C629D4297008003AD8
:102390000319A529013A0319AC29033A0319B329F2
:1023A000013A0319BA29D4290800F401831603134A
:1023B0000616F201F3018312031306107408F000ED
:1023C0000310700CF1007108F400061EEC2974086B
:1023D0008038F0007008F40006140130F20703188A
:1023E000F30A0030F3077308803AFF0080307F0261
:1023F000031DFC2908307202031CDB29831603131A
:102400000612831203130610740808000A168A15B0
:102410008B260A168A110A168A15CF260A168A11E1
:10242000831203138616BE300A168A112B210A1650
:102430008A11F501F6017508AF3E84008317000884
:102440000A168A112B210A168A110130F507031882
:10245000F60A0030F6077608803AFF0080307F02E7
:10246000031D342A08307502031C1B2A8312031330
:10247000861208000A168A11AD200A168A118316E0
:1024800003134E08303E0A168A157C270A168A1155
:10249000831603134F08303E0A168A157C270A1646
:1024A0008A112E300A168A157C270A168A1183167D
:1024B00003135008303E0A168A157C270A168A1123
:1024C00043300A168A157C270A168A110530F8004F
:1024D0007808F30014300A168A15BB270800F501A6
:1024E000F50A7508031908008312031305108316F3
:1024F000031305104630F4007408F00002300A128D
:102500008A1500200A168A11831603130514083051
:10251000F4007408F00002300A128A1500200A162E
:102520008A1183120313051C982AF501F50A992ACA
:10253000F5013C30F4007408F00002300A128A15EC
:1025400000200A168A11712A0A168A158B260A1685
:102550008A110A168A15CF260A168A1183120313C6
:102560008616BE300A168A112B210A168A11F50129
:10257000F6017508013E84000A168A1100200A1629
:102580008A110A168A112B210A168A110130F507C1
:102590000318F60A0030F6077608803AFF0080300C
:1025A0007F02031DD52A08307502031CB92A831245
:1025B000031386120800F7000830F4007408F800CE
:1025C00077080139F4007408F6008312031305102C
:1025D0008316031305100000000000000000000037
:1025E0007603031DF62A8316031305140730F4003F
:1025F0007408F00002300A128A1500200A168A11A7
:10260000831603130514000000007708F40003107C
:10261000740CF5007508F7000130F802780803190A
:102620000800E02AF5010830F4007408F6000310F1
:10263000F50C831203130510831603130510000015
:1026400000000000000000000000831603130514C2
:1026500000000000000000000000831603136E104D
:1026600083120313051C372B831603136E14831672
:1026700003136E18F5170730F4007408F0000230E9
:102680000A128A1500200A168A110130F60276080D
:10269000031D172B75080800013083160313B000C3
:1026A0000030B10030033104031D08000A168A15FA
:1026B000BD260A168A110A168A11D6250A168A110B
:1026C000730883160313B3007208B2001330320686
:1026D00033040319792B1030320633040319792B94
:1026E000320333040319792B043032063304031DFB
:1026F000522B0A168A156C260A168A110A168A1196
:102700005A270A168A1183160313B001B101522BFE
:10271000F501F601700871040319BF2BF701F70AE0
:10272000F11B9E2B01300310F00DF10DFF3E031D38
:10273000932B0130F4007408F707902B013003103D
:10274000F50DF60DFF3E031D9F2B71087302031D4F
:10275000AB2B70087202031CB42B7008F2027108D4
:10276000031CF303F302751401300310F10CF00C99
:10277000FF3E031DB52B0130F702031D9E2B76088B
:10278000F1007508F00008007B080319CC2B8312B8
:102790000313A001A101D22B043083120313A00064
:1027A0000030A1007308FC007C08F00020080A1625
:1027B0008A1105210A168A117508FC007C08F000B0
:1027C000831203132008013E0A168A1105210A16F6
:1027D0008A117708FC007C08F0008312031320089C
:1027E000023E0A168A1105210A168A117908FC0090
:1027F0007C08F000831203132008033E0A168A1196
:10280000052108000A168A158B260A168A110A164F
:102810008A15CF260A168A110A168A1178210A16F5
:102820008A110A128A154A230A168A11A0308400D6
:10283000831203132030E5000408E6001030E7009F
:102840006508840083130008E800E50A6608840030
:1028500068088000E60AE70B202C55308400A03081
:10286000E5000408E6001030E700650884008313E3
:102870000008E800E50A6608840068088000E60AA7
:10288000E70B352C0800FC0100300A168A151E27BC
:102890000A168A11F200F3017208F4007308F500B9
:1028A00001300A168A151E270A168A11F200F30152
:1028B0007208F6007308F70002300A168A151E2700
:1028C0000A168A11F200F3017208F8007308F90081
:1028D00003300A168A151E270A168A11F200F30120
:1028E0007208FA007308FB00740A7504031D862C35
:1028F000760A7704031D862C780A7904031D862C3A
:102900007A0A7B04031D862CFC01FC0A7C08080063
:1029100083120313A101FC1F942CFB09FC09FB0A81
:102920000319FC0AA101A10AFA1F9B2CF909FA0953
:10293000F90A0319FA0A79087A040319C82CA001C4
:10294000A00AFA1BAF2C01300310F90DFA0DFF3E5F
:10295000031DA42C0130FD007D08A007A12C7A08DE
:102960007C02031DB52C79087B02031CBD2C790861
:10297000FB027A08031CFC03FC0201300310FA0C72
:10298000F90CFF3E031DBE2C0130A002031DAF2C2D
:1029900021080319D02CFB09FC09FB0A0319FC0AC6
:1029A0007C08FA007B08F90008000A168A154827F7
:1029B0000A168A110A168A1575260A168A11823095
:1029C0000A168A155E270A168A118312031326082F
:1029D000303E0A168A157C270A168A1183120313C1
:1029E0002708303E0A168A157C270A168A112F30CE
:1029F0000A168A157C270A168A11831203132808DF
:102A0000303E0A168A157C270A168A118312031390
:102A10002908303E0A168A157C270A168A112F309B
:102A20000A168A157C270A168A11831203132C08AA
:102A3000303E0A168A157C270A168A118312031360
:102A40002D08303E0A168A157C2708000A168A15BA
:102A500048270A168A110A168A1575260A168A1137
:102A600082300A168A155E270A168A11831203130A
:102A70002408303E0A168A157C270A168A1183120A
:102A800003132508303E0A168A157C270A168A1178
:102A90003A300A168A157C270A168A1120300A163F
:102AA0008A157C270A168A11831203132208303EE6
:102AB0000A168A157C270A168A1183120313230823
:102AC000303E0A168A157C270A168A113A300A16F1
:102AD0008A157C270A168A11831203132008303EB8
:102AE0000A168A157C270A168A11831203132108F5
:102AF000303E0A168A157C270800F601F11F872D43
:102B0000F009F109F00A0319F10AF601F60AF31FB8
:102B1000922DF209F309F20A0319F30A0130F400C5
:102B20007408F606F701F801700871040319C92D3D
:102B3000F501F50AF11BA82D01300310F00DF10D80
:102B4000FF3E031D9D2D0130F4007408F5079A2DFA
:102B500001300310F70DF80DFF3E031DA92D71087C
:102B60007302031DB52D70087202031CBE2D700880
:102B7000F2027108031CF303F3027714013003100F
:102B8000F10CF00CFF3E031DBF2D0130F502031DBB
:102B9000A82D76080319D12DF709F809F70A0319AA
:102BA000F80A7808F1007708F00008000A168A1180
:102BB000B2200A168A11F801F901F601F701770827
:102BC000F1007608F0000A168A11A4210A168A116B
:102BD0000A168A159B260A168A11F401F50183123A
:102BE0000313071AFE2D0130F8070318F90A003005
:102BF000F9077908F3007808F2000800871A0B2E0D
:102C00000230F8070318F90A0030F9077908F300D1
:102C10007808F2000800071B182E0330F807031885
:102C2000F90A0030F9077908F3007808F200080083
:102C3000871B252E0430F8070318F90A0030F9071E
:102C40007908F3007808F20008000130F40703184F
:102C5000F50A0030F5077508803AFF0080307F02E2
:102C6000031D342E04307402031CEF2D0430F807CA
:102C70000318F90A0030F9070130F6070318F70ABC
:102C80000030F7077708803AFF0080307F02031D8D
:102C90004B2E04307602031CDF2DF201F3010800F5
:102CA00083120313A80028080319592EA901AA01A9
:102CB0005D2E0430A9000030AA0029080A168A15E2
:102CC0001E270A168A11FA00FB017A0883120313E1
:102CD000A0007B08A1002908013E0A168A151E27BC
:102CE0000A168A11FA00FB017A0883120313A20064
:102CF0007B08A3002908023E0A168A151E270A1619
:102D00008A11FA00FB017A0883120313A4007B08DE
:102D1000A5002908033E0A168A151E270A168A11DD
:102D2000FA00FB017A0883120313A6007B08A700B0
:102D30002B308400A030FA000408FB000830FC00AF
:102D40007A08840083170008FD00FA0A7B088400D3
:102D500083137D088000FB0AFC0BA02E2108AC0029
:102D60002008AB002308AE002208AD002508B00003
:102D70002408AF002708B2002608B1007230840092
:102D80002B30FA000408FB000830FC007A088400AD
:102D900083130008FD00FA0A7B0884007D08800088
:102DA000FB0AFC0BC62E08000A168A158B260A168B
:102DB0008A110A168A15CF260A168A11831203135E
:102DC0002108F7007708F00020080A168A15332733
:102DD0000A168A11F800780883160317AF008312C9
:102DE00003132308F7007708F00022080A168A1553
:102DF00033270A168A11F800780883160317B000E3
:102E0000831203132508F7007708F00024080A1638
:102E10008A1533270A168A11F800780883160317D3
:102E2000B100831203132708F7007708F000260883
:102E30000A168A1533270A168A11F80078088316AD
:102E40000317B200831203132908F7007708F00074
:102E500028080A168A1533270A168A11F8007808F6
:102E600083160317B300831203132B08F7007708A8
:102E7000F0002A080A168A1533270A168A11F80064
:102E8000780883160317B400831203132D08F70084
:102E90007708F0002C080A168A1533270A168A11BB
:102EA000F800780883160317B500B6010A168A11D0
:102EB000062208000A168A1548270A168A110A16D9
:102EC0008A1575260A168A110A168A157A260A168E
:102ED0008A11103083120313E9006908F3005E3091
:102EE0000A168A15BB270A168A110A168A157F2622
:102EF0000A168A11033083120313E9006908F300EC
:102F000086300A168A15BB270A168A110A168A11F4
:102F1000AD200A168A1135300A168A157C270A1642
:102F20008A110A168A1102240A168A119030840026
:102F3000831203135530E9000408EA001030EB0057
:102F40006908840083130008EC00E90A6A08840019
:102F500083176C088000EA0AEB0BA02F0430FC00FA
:102F60000030FD0083160317110883120313E900D4
:102F70006908FB007C087D040319FC2F0A168A11DE
:102F800002240A168A1190308400831203135530EC
:102F9000E9000408EA001030EB006908840083139C
:102FA0000008EC00E90A6A08840083176C088000B6
:102FB000EA0AEB0BCD2F8316031711087B060319C2
:102FC000BA2F0A168A11AD200A168A117C08303EE3
:102FD0000A168A157C270A168A1183160317110808
:102FE00083120313E9006908FB00FF30FC07031894
:102FF000FD0AFF30FD07BA2F0A168A15752608004C
:103CD8008312031309100800D8300A168A155E27C4
:103CE800080001300A168A155E27080080300A1677
:103CF8008A155E27080090300A168A155E27080084
:103D08000730831603139F008501880108000630D9
:103D1800831603139F0002308600810108006400A7
:103D28008001840A0406031900340406942E003026
:103D3800F0001030F100FF30F0070318F10AFF30EF
:103D4800F107700A031D9F2E710A031908009F2EA0
:103D58007E088A007F088200AC260A168A15800031
:103D6800840A04087D0603190034FF0A0319FE0AB1
:103D7800B02E8316031389018312031309140A163C
:103D88008A15F6260A168A158312031309100A16CD
:103D98008A15F62608008312031306108612861663
:103DA8008E300A168A112B210A168A1500300A1637
:103DB8008A112B218312031386120800F001F101E6
:103DC8000130F0070318F10A0030F1077108803A52
:103DD800FF0080307F02031DF32E3230700203187B
:103DE8000800E42EF001F1010130F0070318F10A90
:103DF8000030F1077108803AFF0093307F02031DFD
:103E0800072F8830700203180800F82EF001F1011E
:103E18000130F0070318F10A0030F1077108803A01
:103E2800FF0093307F02031D1B2F88307002031898
:103E380008000C2FF1006400831603178C181F2F3D
:103E48007108831203178D003F30F0007008831645
:103E580003178C050C14831203170C080800F300D1
:103E68007308F10003300310F10DFF3E031D372FD7
:103E78000310710DF2007208F40074087004F10068
:103E88007108F400740808000730831603139F00B4
:103E980085018801831203138801850105150E30F9
:103EA8000A168A155E270A168A1538300A168A15E0
:103EB8005E270800F200831203138512051285118C
:103EC8000A168A15E2260A168A158312031385151F
:103ED8000A168A15E2260A168A157208831203132F
:103EE80088000A168A15E226831203138511080032
:103EF800F200831203138516051285110A168A1516
:103F0800E2260A168A158312031385150A168A15DE
:103F1800E2260A168A1572088312031388000A1605
:103F28008A15E2268312031385110800F401F501AE
:103F3800701CA42F7208F4070318F50A7308F50714
:103F480001300310F20DF30DFF3E031DA52F0130C4
:103F58000310F10CF00CFF3E031DAC2F7008710428
:103F6800031D9C2F7508F1007408F0000800F70085
:103F7800F501F6017608803AF40080307402031DDA
:103F8800C72F73087502031808007508770784009F
:103F98000A168A1100200A168A150A168A157C271D
:103FA8000A168A150130F5070318F60A0030F607D5
:103FB800BE2FF30073080F39F0007008F200730881
:103FC800F039F0007008F4007408F00004300310B1
:103FD800F00CFF3E031DEB2F7008F1007108F40090
:103FE800F501F6017408F0007008F5007208F00099
:083FF8007008F60075300800A6
:02400E00323F3F
:00000001FF
