:020000040000FA
:060000000A128A11FC2F18
:100F16000730831603139F00FF308600FF308500DD
:100F260087018312031386018501F701F80178080A
:100F3600F1007708F0000A128A11B5270A128A1101
:100F46000130F7070318F80A0030F8077808803AE6
:100F5600FF0080307F02031DB22F0830770203188E
:100F6600982F9A2F700AF2000130F3000030F40037
:100F7600BF2F0310F30DF40DF20BBC2F83120313D6
:100F86000608F500F60174087606031DCC2F7308D3
:100F96007506031DD92F0130F200700AD42F0310F5
:100FA600F20DFF3E031DD22F72088700700AF20071
:100FB6000130F3000030F400E32F0310F30DF40DBD
:100FC600F20BE02F0508F500F60174087606031DFE
:100FD600EE2F73087506031D08000130F200700A33
:100FE600F62F0310F20DFF3E031DF42F7208870043
:0A0FF600080083010A128A118B2FF4
:02400E00323F3F
:00000001FF
